{
  "_format": "hh-sol-artifact-1",
  "contractName": "TournamentScores",
  "sourceName": "contracts/TournamentScores.sol",
  "abi": [
    {
      "anonymous": false,
      "inputs": [
        {
          "indexed": false,
          "internalType": "string",
          "name": "winnerName",
          "type": "string"
        },
        {
          "indexed": false,
          "internalType": "string",
          "name": "scoreDetail",
          "type": "string"
        }
      ],
      "name": "ScoreSubmitted",
      "type": "event"
    },
    {
      "inputs": [
        {
          "internalType": "uint256",
          "name": "index",
          "type": "uint256"
        }
      ],
      "name": "getScore",
      "outputs": [
        {
          "internalType": "address",
          "name": "",
          "type": "address"
        },
        {
          "internalType": "uint256",
          "name": "",
          "type": "uint256"
        },
        {
          "internalType": "uint256",
          "name": "",
          "type": "uint256"
        },
        {
          "internalType": "string",
          "name": "",
          "type": "string"
        },
        {
          "internalType": "string",
          "name": "",
          "type": "string"
        }
      ],
      "stateMutability": "view",
      "type": "function"
    },
    {
      "inputs": [],
      "name": "getScoresCount",
      "outputs": [
        {
          "internalType": "uint256",
          "name": "",
          "type": "uint256"
        }
      ],
      "stateMutability": "view",
      "type": "function"
    },
    {
      "inputs": [
        {
          "internalType": "uint256",
          "name": "",
          "type": "uint256"
        }
      ],
      "name": "scores",
      "outputs": [
        {
          "internalType": "address",
          "name": "player",
          "type": "address"
        },
        {
          "internalType": "uint256",
          "name": "score",
          "type": "uint256"
        },
        {
          "internalType": "uint256",
          "name": "timestamp",
          "type": "uint256"
        },
        {
          "internalType": "string",
          "name": "winnerName",
          "type": "string"
        },
        {
          "internalType": "string",
          "name": "scoreDetail",
          "type": "string"
        }
      ],
      "stateMutability": "view",
      "type": "function"
    },
    {
      "inputs": [
        {
          "internalType": "uint256",
          "name": "score",
          "type": "uint256"
        },
        {
          "internalType": "string",
          "name": "winnerName",
          "type": "string"
        },
        {
          "internalType": "string",
          "name": "scoreDetail",
          "type": "string"
        }
      ],
      "name": "submitScore",
      "outputs": [],
      "stateMutability": "nonpayable",
      "type": "function"
    }
  ],
  "bytecode": "0x6080604052348015600f57600080fd5b50610ca48061001f6000396000f3fe608060405234801561001057600080fd5b506004361061004c5760003560e01c80630e1af57b146100515780632ee691a3146100855780639471aa78146100b9578063ef3018dc146100d7575b600080fd5b61006b600480360381019061006691906105e1565b6100f3565b60405161007c9594939291906106ee565b60405180910390f35b61009f600480360381019061009a91906105e1565b6102e6565b6040516100b09594939291906106ee565b60405180910390f35b6100c161045c565b6040516100ce919061074f565b60405180910390f35b6100f160048036038101906100ec919061089f565b610468565b005b600080600060608060008087815481106101105761010f61092a565b5b90600052602060002090600502016040518060a00160405290816000820160009054906101000a900473ffffffffffffffffffffffffffffffffffffffff1673ffffffffffffffffffffffffffffffffffffffff1673ffffffffffffffffffffffffffffffffffffffff16815260200160018201548152602001600282015481526020016003820180546101a390610988565b80601f01602080910402602001604051908101604052809291908181526020018280546101cf90610988565b801561021c5780601f106101f15761010080835404028352916020019161021c565b820191906000526020600020905b8154815290600101906020018083116101ff57829003601f168201915b5050505050815260200160048201805461023590610988565b80601f016020809104026020016040519081016040528092919081815260200182805461026190610988565b80156102ae5780601f10610283576101008083540402835291602001916102ae565b820191906000526020600020905b81548152906001019060200180831161029157829003601f168201915b505050505081525050905080600001518160200151826040015183606001518460800151955095509550955095505091939590929450565b600081815481106102f657600080fd5b90600052602060002090600502016000915090508060000160009054906101000a900473ffffffffffffffffffffffffffffffffffffffff169080600101549080600201549080600301805461034b90610988565b80601f016020809104026020016040519081016040528092919081815260200182805461037790610988565b80156103c45780601f10610399576101008083540402835291602001916103c4565b820191906000526020600020905b8154815290600101906020018083116103a757829003601f168201915b5050505050908060040180546103d990610988565b80601f016020809104026020016040519081016040528092919081815260200182805461040590610988565b80156104525780601f1061042757610100808354040283529160200191610452565b820191906000526020600020905b81548152906001019060200180831161043557829003601f168201915b5050505050905085565b60008080549050905090565b60006040518060a001604052803373ffffffffffffffffffffffffffffffffffffffff16815260200185815260200142815260200184815260200183815250908060018154018082558091505060019003906000526020600020906005020160009091909190915060008201518160000160006101000a81548173ffffffffffffffffffffffffffffffffffffffff021916908373ffffffffffffffffffffffffffffffffffffffff160217905550602082015181600101556040820151816002015560608201518160030190816105409190610b65565b5060808201518160040190816105569190610b65565b5050507ff001d484ee34bbb07342693c1e704629097ad9e8fd632692cbeb74fc8576b791828260405161058a929190610c37565b60405180910390a1505050565b6000604051905090565b600080fd5b600080fd5b6000819050919050565b6105be816105ab565b81146105c957600080fd5b50565b6000813590506105db816105b5565b92915050565b6000602082840312156105f7576105f66105a1565b5b6000610605848285016105cc565b91505092915050565b600073ffffffffffffffffffffffffffffffffffffffff82169050919050565b60006106398261060e565b9050919050565b6106498161062e565b82525050565b610658816105ab565b82525050565b600081519050919050565b600082825260208201905092915050565b60005b8381101561069857808201518184015260208101905061067d565b60008484015250505050565b6000601f19601f8301169050919050565b60006106c08261065e565b6106ca8185610669565b93506106da81856020860161067a565b6106e3816106a4565b840191505092915050565b600060a0820190506107036000830188610640565b610710602083018761064f565b61071d604083018661064f565b818103606083015261072f81856106b5565b9050818103608083015261074381846106b5565b90509695505050505050565b6000602082019050610764600083018461064f565b92915050565b600080fd5b600080fd5b7f4e487b7100000000000000000000000000000000000000000000000000000000600052604160045260246000fd5b6107ac826106a4565b810181811067ffffffffffffffff821117156107cb576107ca610774565b5b80604052505050565b60006107de610597565b90506107ea82826107a3565b919050565b600067ffffffffffffffff82111561080a57610809610774565b5b610813826106a4565b9050602081019050919050565b82818337600083830152505050565b600061084261083d846107ef565b6107d4565b90508281526020810184848401111561085e5761085d61076f565b5b610869848285610820565b509392505050565b600082601f8301126108865761088561076a565b5b813561089684826020860161082f565b91505092915050565b6000806000606084860312156108b8576108b76105a1565b5b60006108c6868287016105cc565b935050602084013567ffffffffffffffff8111156108e7576108e66105a6565b5b6108f386828701610871565b925050604084013567ffffffffffffffff811115610914576109136105a6565b5b61092086828701610871565b9150509250925092565b7f4e487b7100000000000000000000000000000000000000000000000000000000600052603260045260246000fd5b7f4e487b7100000000000000000000000000000000000000000000000000000000600052602260045260246000fd5b600060028204905060018216806109a057607f821691505b6020821081036109b3576109b2610959565b5b50919050565b60008190508160005260206000209050919050565b60006020601f8301049050919050565b600082821b905092915050565b600060088302610a1b7fffffffffffffffffffffffffffffffffffffffffffffffffffffffffffffffff826109de565b610a2586836109de565b95508019841693508086168417925050509392505050565b6000819050919050565b6000610a62610a5d610a58846105ab565b610a3d565b6105ab565b9050919050565b6000819050919050565b610a7c83610a47565b610a90610a8882610a69565b8484546109eb565b825550505050565b600090565b610aa5610a98565b610ab0818484610a73565b505050565b5b81811015610ad457610ac9600082610a9d565b600181019050610ab6565b5050565b601f821115610b1957610aea816109b9565b610af3846109ce565b81016020851015610b02578190505b610b16610b0e856109ce565b830182610ab5565b50505b505050565b600082821c905092915050565b6000610b3c60001984600802610b1e565b1980831691505092915050565b6000610b558383610b2b565b9150826002028217905092915050565b610b6e8261065e565b67ffffffffffffffff811115610b8757610b86610774565b5b610b918254610988565b610b9c828285610ad8565b600060209050601f831160018114610bcf5760008415610bbd578287015190505b610bc78582610b49565b865550610c2f565b601f198416610bdd866109b9565b60005b82811015610c0557848901518255600182019150602085019450602081019050610be0565b86831015610c225784890151610c1e601f891682610b2b565b8355505b6001600288020188555050505b505050505050565b60006040820190508181036000830152610c5181856106b5565b90508181036020830152610c6581846106b5565b9050939250505056fea2646970667358221220e458ac8f8251ef508f46fb993bfd92bc2feb75efcaab95e6b327926c162e978e64736f6c634300081c0033",
  "linkReferences": {},
  "deployedLinkReferences": {}
}