{
  "_format": "hh-sol-artifact-1",
  "contractName": "TournamentScores",
  "sourceName": "contracts/TournamentScores.sol",
  "abi": [
    {
      "anonymous": false,
      "inputs": [
        {
          "indexed": true,
          "internalType": "address",
          "name": "player",
          "type": "address"
        },
        {
          "indexed": false,
          "internalType": "uint256",
          "name": "score",
          "type": "uint256"
        },
        {
          "indexed": false,
          "internalType": "uint256",
          "name": "timestamp",
          "type": "uint256"
        },
        {
          "indexed": false,
          "internalType": "string",
          "name": "winnerName",
          "type": "string"
        },
        {
          "indexed": false,
          "internalType": "string",
          "name": "scoreDetail",
          "type": "string"
        }
      ],
      "name": "ScoreSubmitted",
      "type": "event"
    },
    {
      "inputs": [
        {
          "internalType": "uint256",
          "name": "index",
          "type": "uint256"
        }
      ],
      "name": "getScore",
      "outputs": [
        {
          "internalType": "address",
          "name": "",
          "type": "address"
        },
        {
          "internalType": "uint256",
          "name": "",
          "type": "uint256"
        },
        {
          "internalType": "uint256",
          "name": "",
          "type": "uint256"
        },
        {
          "internalType": "string",
          "name": "",
          "type": "string"
        },
        {
          "internalType": "string",
          "name": "",
          "type": "string"
        }
      ],
      "stateMutability": "view",
      "type": "function"
    },
    {
      "inputs": [],
      "name": "getScoresCount",
      "outputs": [
        {
          "internalType": "uint256",
          "name": "",
          "type": "uint256"
        }
      ],
      "stateMutability": "view",
      "type": "function"
    },
    {
      "inputs": [
        {
          "internalType": "uint256",
          "name": "",
          "type": "uint256"
        }
      ],
      "name": "scores",
      "outputs": [
        {
          "internalType": "address",
          "name": "player",
          "type": "address"
        },
        {
          "internalType": "uint256",
          "name": "score",
          "type": "uint256"
        },
        {
          "internalType": "uint256",
          "name": "timestamp",
          "type": "uint256"
        },
        {
          "internalType": "string",
          "name": "winnerName",
          "type": "string"
        },
        {
          "internalType": "string",
          "name": "scoreDetail",
          "type": "string"
        }
      ],
      "stateMutability": "view",
      "type": "function"
    },
    {
      "inputs": [
        {
          "internalType": "uint256",
          "name": "score",
          "type": "uint256"
        },
        {
          "internalType": "string",
          "name": "winnerName",
          "type": "string"
        },
        {
          "internalType": "string",
          "name": "scoreDetail",
          "type": "string"
        }
      ],
      "name": "submitScore",
      "outputs": [],
      "stateMutability": "nonpayable",
      "type": "function"
    }
  ],
  "bytecode": "0x6080604052348015600f57600080fd5b50610cdb8061001f6000396000f3fe608060405234801561001057600080fd5b506004361061004c5760003560e01c80630e1af57b146100515780632ee691a3146100855780639471aa78146100b9578063ef3018dc146100d7575b600080fd5b61006b600480360381019061006691906105fc565b6100f3565b60405161007c959493929190610709565b60405180910390f35b61009f600480360381019061009a91906105fc565b6102e6565b6040516100b0959493929190610709565b60405180910390f35b6100c161045c565b6040516100ce919061076a565b60405180910390f35b6100f160048036038101906100ec91906108ba565b610468565b005b600080600060608060008087815481106101105761010f610945565b5b90600052602060002090600502016040518060a00160405290816000820160009054906101000a900473ffffffffffffffffffffffffffffffffffffffff1673ffffffffffffffffffffffffffffffffffffffff1673ffffffffffffffffffffffffffffffffffffffff16815260200160018201548152602001600282015481526020016003820180546101a3906109a3565b80601f01602080910402602001604051908101604052809291908181526020018280546101cf906109a3565b801561021c5780601f106101f15761010080835404028352916020019161021c565b820191906000526020600020905b8154815290600101906020018083116101ff57829003601f168201915b50505050508152602001600482018054610235906109a3565b80601f0160208091040260200160405190810160405280929190818152602001828054610261906109a3565b80156102ae5780601f10610283576101008083540402835291602001916102ae565b820191906000526020600020905b81548152906001019060200180831161029157829003601f168201915b505050505081525050905080600001518160200151826040015183606001518460800151955095509550955095505091939590929450565b600081815481106102f657600080fd5b90600052602060002090600502016000915090508060000160009054906101000a900473ffffffffffffffffffffffffffffffffffffffff169080600101549080600201549080600301805461034b906109a3565b80601f0160208091040260200160405190810160405280929190818152602001828054610377906109a3565b80156103c45780601f10610399576101008083540402835291602001916103c4565b820191906000526020600020905b8154815290600101906020018083116103a757829003601f168201915b5050505050908060040180546103d9906109a3565b80601f0160208091040260200160405190810160405280929190818152602001828054610405906109a3565b80156104525780601f1061042757610100808354040283529160200191610452565b820191906000526020600020905b81548152906001019060200180831161043557829003601f168201915b5050505050905085565b60008080549050905090565b60006040518060a001604052803373ffffffffffffffffffffffffffffffffffffffff16815260200185815260200142815260200184815260200183815250908060018154018082558091505060019003906000526020600020906005020160009091909190915060008201518160000160006101000a81548173ffffffffffffffffffffffffffffffffffffffff021916908373ffffffffffffffffffffffffffffffffffffffff160217905550602082015181600101556040820151816002015560608201518160030190816105409190610b80565b5060808201518160040190816105569190610b80565b5050503373ffffffffffffffffffffffffffffffffffffffff167fc8c5e0075f3a0ac19483286adf772244557eac55b34b3d3b91694d99417603e1844285856040516105a59493929190610c52565b60405180910390a2505050565b6000604051905090565b600080fd5b600080fd5b6000819050919050565b6105d9816105c6565b81146105e457600080fd5b50565b6000813590506105f6816105d0565b92915050565b600060208284031215610612576106116105bc565b5b6000610620848285016105e7565b91505092915050565b600073ffffffffffffffffffffffffffffffffffffffff82169050919050565b600061065482610629565b9050919050565b61066481610649565b82525050565b610673816105c6565b82525050565b600081519050919050565b600082825260208201905092915050565b60005b838110156106b3578082015181840152602081019050610698565b60008484015250505050565b6000601f19601f8301169050919050565b60006106db82610679565b6106e58185610684565b93506106f5818560208601610695565b6106fe816106bf565b840191505092915050565b600060a08201905061071e600083018861065b565b61072b602083018761066a565b610738604083018661066a565b818103606083015261074a81856106d0565b9050818103608083015261075e81846106d0565b90509695505050505050565b600060208201905061077f600083018461066a565b92915050565b600080fd5b600080fd5b7f4e487b7100000000000000000000000000000000000000000000000000000000600052604160045260246000fd5b6107c7826106bf565b810181811067ffffffffffffffff821117156107e6576107e561078f565b5b80604052505050565b60006107f96105b2565b905061080582826107be565b919050565b600067ffffffffffffffff8211156108255761082461078f565b5b61082e826106bf565b9050602081019050919050565b82818337600083830152505050565b600061085d6108588461080a565b6107ef565b9050828152602081018484840111156108795761087861078a565b5b61088484828561083b565b509392505050565b600082601f8301126108a1576108a0610785565b5b81356108b184826020860161084a565b91505092915050565b6000806000606084860312156108d3576108d26105bc565b5b60006108e1868287016105e7565b935050602084013567ffffffffffffffff811115610902576109016105c1565b5b61090e8682870161088c565b925050604084013567ffffffffffffffff81111561092f5761092e6105c1565b5b61093b8682870161088c565b9150509250925092565b7f4e487b7100000000000000000000000000000000000000000000000000000000600052603260045260246000fd5b7f4e487b7100000000000000000000000000000000000000000000000000000000600052602260045260246000fd5b600060028204905060018216806109bb57607f821691505b6020821081036109ce576109cd610974565b5b50919050565b60008190508160005260206000209050919050565b60006020601f8301049050919050565b600082821b905092915050565b600060088302610a367fffffffffffffffffffffffffffffffffffffffffffffffffffffffffffffffff826109f9565b610a4086836109f9565b95508019841693508086168417925050509392505050565b6000819050919050565b6000610a7d610a78610a73846105c6565b610a58565b6105c6565b9050919050565b6000819050919050565b610a9783610a62565b610aab610aa382610a84565b848454610a06565b825550505050565b600090565b610ac0610ab3565b610acb818484610a8e565b505050565b5b81811015610aef57610ae4600082610ab8565b600181019050610ad1565b5050565b601f821115610b3457610b05816109d4565b610b0e846109e9565b81016020851015610b1d578190505b610b31610b29856109e9565b830182610ad0565b50505b505050565b600082821c905092915050565b6000610b5760001984600802610b39565b1980831691505092915050565b6000610b708383610b46565b9150826002028217905092915050565b610b8982610679565b67ffffffffffffffff811115610ba257610ba161078f565b5b610bac82546109a3565b610bb7828285610af3565b600060209050601f831160018114610bea5760008415610bd8578287015190505b610be28582610b64565b865550610c4a565b601f198416610bf8866109d4565b60005b82811015610c2057848901518255600182019150602085019450602081019050610bfb565b86831015610c3d5784890151610c39601f891682610b46565b8355505b6001600288020188555050505b505050505050565b6000608082019050610c67600083018761066a565b610c74602083018661066a565b8181036040830152610c8681856106d0565b90508181036060830152610c9a81846106d0565b90509594505050505056fea2646970667358221220615b4fb561bb816a9e10788cc431cb0f8232cd74f4fb8c176226703252ccfc8d64736f6c634300081c0033",
  "linkReferences": {},
  "deployedLinkReferences": {}
}